:020000040800F2
:1000000000280020090300085903000859030008CC
:1000100059030008590300085903000800000000B4
:10002000000000000000000000000000590300086C
:100030005903000800000000590300085903000894
:100040005903000859030008590300085903000820
:100050005903000859030008590300085903000810
:100060005903000859030008590300085903000800
:1000700059030008590300085903000859030008F0
:1000800059030008590300085903000859030008E0
:1000900059030008590300085903000859030008D0
:1000A00059030008590300085903000859030008C0
:1000B00059030008590300085903000859030008B0
:1000C00059030008590300085903000859030008A0
:1000D0005903000859030008590300085903000890
:1000E00059030008590300080000000059030008E4
:1000F0005903000859030008590300085903000870
:10010000590300085903000859030008590300085F
:10011000590300085903000859030008590300084F
:10012000590300085903000859030008590300083F
:1001300010B5054C237833B9044B13B10448AFF321
:1001400000800123237010BD00000020000000008B
:10015000A403000808B5034B1BB103490348AFF3E0
:10016000008008BD0000000004000020A403000877
:1001700080B400AF074B1B68064A43F004031360CA
:10018000044B1B68034A43F00803136000BFBD46DD
:1001900080BC70471810024080B400AF314B1B6820
:1001A000304A23F0100313602E4B1B682D4A23F0B6
:1001B000200313602B4B1B682A4A43F04003136053
:1001C000284B1B68274A23F080031360264B1B68CB
:1001D000254A23F480131360234B1B68224A23F41F
:1001E00000131360204B1B681F4A43F48003136005
:1001F0001D4B1B681C4A23F4000313601B4B1B6838
:100200001A4A43F010031360184B1B68174A23F077
:1002100020031360154B1B68144A23F0400313603E
:10022000124B1B68114A23F080031360104B1B68AC
:100230000F4A43F4801313600D4B1B680C4A23F4E0
:10024000001313600A4B1B68094A23F480031360F0
:10025000074B1B68064A23F40003136000BFBD462A
:1002600080BC70470008014004080140000C0140B8
:10027000040C014080B485B000AF78600023FB60BF
:100280000BE00023BB6002E0BB680133BB60BB68CE
:10029000FF2BF9DDFB680133FB60FA687B689A424B
:1002A000EFDB00BF1437BD4680BC704780B500AFA0
:1002B000FFF75EFFFFF770FF114B1B6803F00203AF
:1002C000002B0CD10F4B1B680E4A83F00203136006
:1002D00000BF0B4B1B6803F00203002BF9D0084B47
:1002E0001B685B0B03F00103012BE5D1054B1B6879
:1002F000044A83F4005313606420FFF7BBFFDBE77D
:10030000080801400C0C01400D488546AFF3008001
:100310000C480D490D4A002302E0D458C450043360
:10032000C4188C42F9D30A4A0A4C002301E0136036
:100330000432A242FBD300F011F8FFF7B7FFFEE74B
:10034000002800200000002000000020C403000856
:10035000000000201C000020FEE7000070B5002512
:100360000C4E0D4CA41BA410A54209D100F01AF8A4
:1003700000250A4E0A4CA41BA410A54205D170BD4D
:1003800056F8253098470135EEE756F8253098475E
:100390000135F2E7BC030008BC030008BC030008F9
:1003A000C0030008F8B500BFF8BC08BC9E46704703
:0C03B000F8B500BFF8BC08BC9E467047C2
:0403BC0055010008DF
:0403C00031010008FF
:0400000508000309E3
:00000001FF
