S018000041737369676E6D656E74315F436F64652E73726563E8
S11300000C942A000C9447000C9447000C9447006D
S11300100C9447000C9447000C9447000C94470040
S11300200C9447000C9447000C9447000C94470030
S11300300C9447000C9447000C9447000C94470020
S11300400C9447000C9447000C9447000C94470010
S11300500C94470011241FBECFE5D8E0DEBFCDBF0E
S113006010E0A0E6B0E0E8E2F1E002C005900D92F5
S1130070A036B107D9F710E0A0E6B0E001C01D92A8
S1130080A036B107E1F70E9452000C9492000C9440
S1130090000081B3806F81BB0895181619060CF413
S11300A0FFCF08950E944900C0E0D0E000E010E0D6
S11300B034C0C130D105B1F0C230D1051CF4209751
S11300C041F02AC0C230D105B1F0C330D10521F5C9
S11300D01BC0949A95989698979880EA96E80E94FF
S11300E04D001AC09498959A9698979880EA96E845
S11300F00E944D0011C094989598969A979880EA1A
S113010096E80E944D0008C0949895989698979AFE
S113011080EA96E80E944D002196C430D1054CF245
S10B0120E801D7CFF894FFCFEA
S9030000FC
